:4000000000800020110000004D0400004D04000080B500AF034A044B1B68136000F058FB00F01EFABC760040FA46004010B5054C237833B9044B13B10448AFF30080012378
:40004000237010BD4881FF1F000000007C230000084B10B51BB108490848AFF300800848036803B910BD074B002BFBD0BDE81040184700BF000000004C81FF1F7C230000CA
:40008000C880FF1F0000000080B500AF01F0C2F800F0C4FAFEE700BF80B582B000AF786039603A680021786802F05BF900BF0837BD4680BD80B584B000AFF860B9607A60E8
:4000C0007A68B968F86802F041F900BF1037BD4680BD00BF80B584B000AFF860B9607A607A68B968F86802F031F900BF1037BD4680BD00BF80B483B000AF0346FB71FEE7D5
:4001000080B487B000AF7860396000233B6100237B6127E07B699B007A6813441B68BB60BB68FB73BB6823F0FF03BB6014E03B695B003A6813441B781A46BB68134419467D
:400140003B695B003A6813445B780B703B6901333B61FB7B013BFB73FB7B002BE7D17B6901337B617B69142BD4D900BF1C37BD4680BC704780B582B000AF334B03221A802D
:40018000324B1B221A70324B33221A80314B18221A70314B02221A704FF0402308221A702E4B03221A702E4B2E4A1278D2B21A702D4B08221A802D4B41F251221A80002307
:4001C000FB7019237B6014E0FB785B00DAB2284B1B78DBB203F00103DBB21343DBB203F00303FB704FF4F07001F0CEFC7B68013B7B607B68002B02D0FB78032BE4D17B6860
:40020000002B02D10320FFF775FF1A4B4FF480721A80184B07221A70174B00221A70174B48221A70134B00221A70154B02221A70144A144B1B78DBB243F00303DBB2137047
:4002400000BF0837BD4680BD804000408240004084400040864000400043004000420040A14600400801004922420040204200402542004004400040064000400840004037
:4002800001400040A243004080B483B000AF0B4B1B78FB710A4AFB7903F00703DBB21370084AFB791B09DBB21370074B44221A7000BF0C37BD4680BC704700BFCF0100494C
:4002C0006E5800406F5800407658004080B586B000AF72B64A4A4A4B1B78DBB243F00403DBB213700023FB7513E0FA7D13465B0013445B00434A13443B613B691A683B6961
:400300009B889BB219461046FFF7C6FEFB7D0133FB75FB7D0A2BE8D90023FB751CE0FA7D13469B0013445B00374A1344FB60FB681B68BB60FB685B687B60FB681A7A5B7AA7
:400340001B0213437B807B881A467968B868FFF7C1FEFB7D0133FB75FB7D022BDFD92B492B48FFF7CDFE2B4A2A4B1B78DBB243F00203DBB21370284A274B1B78DBB243F04C
:400380000203DBB21370254A244B1B78DBB243F04003DBB21370224A214B1B78DBB243F01003DBB213700A221E491F48FFF792FE08221E491E48FFF78DFE08221D491E4868
:4003C000FFF788FE1D4A1D4B1B78DBB243F00803DBB213701A4B61221A70FFF7CBFE184B81221A70174B01221A70FFF74DFF0E220A491548FFF75EFE00BF1837BD4680BDB2
:40040000E846004080230000C423000038240000E42300000350014013500140A0430040C243004050260000C05100405C26000012510040642600002251004022430040F3
:400440000048004004000840B043004080B500AF01F050FF03461B680C2B00D1FEE7FEE780B586B000AF224B7B61224B3B61204B7B6135E03B691B68FB603B695B68BB60E7
:400480003B699B683B6000237B600CE0FB681A68BB681A60BB680433BB60FB680433FB607B6804337B607A683B689A42EED13B69DB683B6000237B6008E0BB6800221A60E8
:4004C000BB680433BB607B6804337B607A683B689A42F2D13B6910333B617B69013B7B617B69002BC6D101F00BFFFFF7CDFDFEE701000000A427000080B582B000AF184B64
:40050000184A1A60184A184B1B6843F40073136000237B600FE07B68032B04D8134A7B6852F8233000E0124B12497A6841F822307B6801337B607B682F2BECD90E4B1B78DE
:40054000DAB20E4B1A700E4B0A4A1A60FFF7BEFE0C4B00221A6000BF0837BD4680BD00BF0CED00E00004FA0514ED00E0000000004D0400000080FF1FBC760040C480FF1FC3
:4005800008ED00E0C080FF1F80B485B000AF78600B467B800023FB810BE07B88013B7A6813441B789AB2FB891344FB817B88013B7B807B88002BF0D1FB895B429BB218469F
:4005C0001437BD4680BC704780B586B000AFF860B9607A600023FB75FB680F4A934213D0FB68002B10D0002001F050F80CE07B68013B7B60FA68BB681A447B6813441B78F1
:40060000DAB2FB7D1344FB757B68002BEFD1FB7D18461837BD4680BD0080004080B582B000AF06237B60002000F07AF80346002B01D100237B601D4B1B681B681A4600212D
:400640000020FFF7C1FF0346FB70194B1B681B78FA78D31AFB70FB785B42FB70144B1B681B78FA789A4204D1104B1B681B68002B02D1002001F00AF80E4B1B78DBB203F0BB
:40068000C003402B02D07B68002B05D0094B00221A70002000F0BAF8C82000F0B7F800F00BF800BF0837BD4680BD00BFD080FF1FCC80FF1FFA46004080B500AF034B8022F2
:4006C0001A7000F0EFFF00BF80BD00BFFA46004080B582B000AF104B1B78DBB203F0C003802B15D10023FB710B4B00221A70FB791946022000F08EFC0346002B08D0FB79BF
:400700001946022000F086FC0346184600F006F800BF0837BD4680BDFA460040004700BF90B587B000AF0346FB71FB791946032000F070FC034601331C02FB7919460420A9
:4007400000F068FC03462344FB600023FB740023BB74FB791946032000F05CFC034601331B027B6111E07B691B78FB72FB7A002B04D0FB7AFF2B01D00123FB74BA7CFB7A8B
:400780001344BB747B6901337B617A69FB689A42E9D3FB791946032000F03CFC034601331B02DB087B61FB68174A934202D0FB68DB0801E04FF40043FB600AE07B6903F135
:4007C00090431B78DAB2BB7C1344BB747B6901337B617A69FB689A42F0D3BB7C5B42BB74BC7CFB791946012000F014FC03469C4202D1FB7C002B01D1062300E0002318464A
:400800001C37BD4690BD00BFC0FF030080B5ADF52A7D00AF0246FB1D1A700023A7F8A2320A2387F8A132002387F8A0320023A7F89E3200F029FE0346002B02D0002000F0F5
:4008400025FF01F0B1F962B6002387F8A532FB1D1B78002B02D0FB1D1B7800E0FF2307F5207207F5AA704FF4967101F0D3F9C7F89002FB1D1B78002B04D097F8A132013B8F
:4008800087F8A13297F8A132002B03D0D7F89032002BDCD1D7F89032002B40F05F83B7F88032062B04D907F5AA731B78012B03D0042387F8A5324FE007F5AA73DB789BB2D0
:4008C0001B029AB207F5AA739B789BB21343A7F8A232B7F8A2320733B7F88022934205D8B7F8A2320733B3F5967F03D9032387F8A53231E0B7F8A232053307F5AA72D35CA8
:400900009BB21B029AB2B7F8A232043307F5AA71CB5C9BB21343A7F88E32B7F8A232063307F5AA72D35C172B03D0042387F8A53212E0B7F8A23204339AB207F5AA7311460A
:400940001846FFF721FE03461A46B7F88E32934202D0082387F8A5320023A7F8A63297F8A532002B40F0F08207F5AA731B7987F88D32042387F8A53207F5AA735B78313B37
:400980000A2B00F2758201A252F823F0B9090000F5090000710E0000930A00002B0C0000710E00003D0C00008F0C0000930A0000DB0C0000550E000097F8A032012B40F0FF
:4009C000B282B7F8A232002B40F0AD820020FFF7A7FE0346002B0CBF01230023DBB21A4607F5AA731A710123A7F8A632002387F8A53298E297F8A032012B40F09682B7F8D2
:400A0000A232012B40F0918297F88D32032B00F28C82D84B1B681B681B0C87F88C3297F88D2297F88C329A4208D1D24B1B681B681B0A9BB2DBB2A7F89C320DE097F88D2270
:400A400097F88C329A4203D90023A7F89C3203E04FF48073A7F89C32B7F89C32DAB207F5AA731A71B7F89C321B0A9BB2DAB207F5AA735A7107F5AA73FF229A7107F5AA73F1
:400A80000022DA710423A7F8A632002387F8A5324BE207F5AA735B78342B21D197F8A032012B40F05182B7F8A232032B40F04C8297F88D323F2B07D997F98D32002B03DB19
:400AC0001023A7F89E3203E04FF49073A7F89E32B7F89E2207F128030021184601F041FC97F8A032012B40F02282B7F8A232022B40F21D82B7F89E3207F12802D018B7F863
:400B0000A232DA1E07F5AA730733194601F01EFCB7F89E22B7F8A23213449BB2033BA7F89E3297F88D323F2B0CD997F98D32002B08DB00F065FD1023A7F8A2328023A7F8B5
:400B40009A3207E04FF49073A7F8A2324FF48073A7F89A32B7F89E22B7F8A2329A425DD107F5AA739B799BB21B029AB207F5AA735B799BB21343A7F89E32B7F89E22B7F86C
:400B80009A329A4201D2002300E00A2387F8A53297F8A532002B40F0CC8197F88D323F2B27D897F88D329BB21B029AB2B7F89E321344A7F88A326F4B1B681B681B0AA7F8B6
:400BC00098326C4B1B681B68DBB2002B04D0B7F898320133A7F89832B7F88A22B7F898329A4206D20A2387F8A5320023A7F89E32AAE1B7F8A23207F12802B7F89E1297F811
:400C00008D0200F053FC0346002B01D00A2300E0002387F8A53200F08BFD02E0032387F8A5320023A7F89E3281E197F8A032012B40F081810023A7F89E3290E197F8A0322E
:400C4000012B40F07A81B7F89E22B7F8A2321344B3F5967F17D8002387F8A532B7F89E3207F12802D018B7F8A22207F5AA730433194601F06BFBB7F89E22B7F8A232134464
:400C8000A7F89E3259E1032387F8A53255E1B7F8A232002B1DD107F12003374A92E8030083E80300012387F8A0320823A7F8A6320023A7F89E32B7F8A62207F1200107F581
:400CC000AA730433184601F041FB002387F8A5323AE1042387F8A53236E197F8A032012B40F02D81B7F8A232032B40F0288107F5AA739B799BB21B029AB207F5AA735B7928
:400D00009BB21343A7F8883297F88D323F2B22D997F98D32002B1EDB00F072FCB7F888321B01C7F88432B7F888327F2B01D8002300E00A2387F8A53297F8A532002B40F006
:400D400000811022D7F884120C48FFF73DFC034687F8973226E097F88D321A02B7F8883213441B02C7F88432B7F88832FF2B07D8002306E0D080FF1F742700000080004041
:400D80000A2387F8A53297F8A532002B40F0DB804FF48072D7F884120020FFF715FC034687F8973297F88D323F2B23D897F88D3203F510331A02B7F8883213445B01C7F80F
:400DC00084320023A7F8943210E0B7F89422D7F8843213441B78DAB297F89732134487F89732B7F894320133A7F89432B7F894321F2BEAD9B7F88832A7F8823297F88D32D4
:400E0000032B19D1B7F88232FF2B15D10021052000F000F90346DBB297F89722D31A87F897320021062000F0F5F80346DBB297F89722D31A87F8973297F897325B42DAB2AD
:400E400007F5AA731A71002387F8A5320123A7F8A63274E00020FFF763FC0346002B02D1464B80221A7000F0A9FE00F01BFC6BE0434B1B68002B51D097F8A032012B4DD1FC
:400E800007F5AA735A7807F118031A7007F11803B7F8A2225A8007F1180307F5AA7204325A6007F10C030C220021184601F059FA07F10C0307F5AA7204329A60304B1B68EA
:400EC00007F10C0107F118021046984707F10C039B88A7F8A632B7F8A632B3F5937F07D307F10C039A6807F5AA7304339A4208D007F10C039B68002B0AD1B7F8A632002B1B
:400F000006D00E2387F8A5320023A7F8A63209E007F10C031B6887F8A53203E0052387F8A53211E010E000BF0EE000BF0CE000BF0AE000BF08E000BF06E000BF04E000BF00
:400F400002E000BF00E000BFB7F8A62207F5AA7197F8A532184600F015F800E000BFFB1D1B78002B3FF470AC97F8A032012B3FF46BAC00BF07F52A77BD4680BDFA4600402B
:400F80006481FF1F80B584B000AF03463960FB711346BB803B6801221A703B680133FA791A703B680233BA88D2B21A703B680333BA88120A92B2D2B21A70BB8804339BB298
:400FC00019463868FFF7E0FA0346FB81BB8804333A681344FA89D2B21A70BB8805333A681344FA89120A92B2D2B21A70BB8806333A68134417221A70BB88073399B23A1D9D
:401000009623386800F0E0FD034618461037BD4680BD00BF80B586B000AF03460A46FB711346BB710223FB740023FB60FB79013B0B2B00F2AF8001A252F823F06D10000063
:4010400087100000A1100000B7100000D1100000EB1000001B110000051100003111000047110000611100007B110000BA7913461B069B1A1B0203F57F3303F570737B61CB
:401080000123FB748CE0BA7913461B069B1A1B0203F57F3303F2C1337B610423FB747FE0BA7913461B069B1A1B0203F57F3303F2C5337B6174E0BA7913461B069B1A1B0289
:4010C00003F57F3303F2C9337B610423FB7467E0BA7913461B069B1A1B0203F57F3303F574737B610123FB745AE0BA7913461B069B1A1B0203F57F3303F2D1337B610123C9
:40110000FB744DE0BA7913461B069B1A1B0203F57F3303F2D6337B6142E0BA7913461B069B1A1B0203F57F3303F2D2337B6137E0BA7913461B069B1A1B0203F57F3303F5B7
:4011400075737B612CE0BA7913461B069B1A1B0203F57F3303F576737B610423FB741FE0BA7913461B069B1A1B0203F57F3303F577737B610123FB7412E0BA7913461B060B
:401180009B1A1B0203F57F3303F578737B610423FB7405E0002000F079FA00237B6100BFFB7C012B03D17B691B78DBB2FB60FB7C022B0BD17B691B78DBB2FB607B6901336B
:4011C0001B78DBB21B02FA681343FB60FB7C042B1BD17B691B78DBB2FB607B6901331B78DBB21B02FA681343FB607B6902331B78DBB21B04FA681343FB607B6903331B782E
:40120000DBB21B06FA681343FB60FB6818461837BD4680BD80B500AF064B1B78002B04D100F00AF8034B01221A7000F063F800BF80BD00BF6881FF1F80B582B000AF284A53
:40124000274B1B78DBB243F00203DBB21370254B1B78DBB223F07003FB71224AFB7943F01003DBB21370204A1F4B1B78DBB223F03003DBB213701C4A1B4B1B78DBB243F073
:401280003003DBB21370184A174B1B78DBB223F00F03DBB21370144A134B1B78DBB243F00F03DBB213707F2000F048F8402000F055F8002000F062F80C4A0C4B1B78DBB2FE
:4012C00043F00103DBB21370094A094B1B78DBB243F00103DBB2137000BF0837BD4680BD004F0040024F00400B4F0040A3430040014F004080B400AF0D4A0D4B1B78DBB239
:4013000043F00103DBB213700A4A0A4B1B78DBB243F00103DBB21370074A074B1B78DBB243F00103DBB2137000BFBD4680BC7047A3430040B3430040004F004080B483B045
:4013400000AF0346FB71044BFA7992B21A8000BF0C37BD4680BC7047044F004080B483B000AF0346FB71044BFA7992B21A8000BF0C37BD4680BC7047064F004080B483B07F
:4013800000AF0346FB71044AFB79137000BF0C37BD4680BC704700BF034F004080B582B000AF00F03FFA4FF0FF337B6000F06CFB0346002B24D1012000F034FB0346072B35
:4013C0001BD10221124800F051FA0346022B0DD100237B6002E0012000F096F90D4B1B78DBB203F00203002BF5D006E0094B1B78DBB203F00203002BE3D000F079FB01E0A0
:4014000004237B607B6818460837BD4680BD00BF8081FF1F2247004080B582B000AF00F001FA00F031FB0346002B23D100F088FB78607B68072B1AD102E0012000F064F943
:40144000104B1B78DBB203F00203002BF5D00D4B1B78DBB203F00203002B08D0094B1B78DBB29B08DBB2002B01D100237B6000F03FFB01E004237B607B6818460837BD4667
:4014800080BD00BF2247004080B582B000AFFFF7C3FF78607B68002B02D1FFF77FFF78607B6818460837BD4680BD00BF80B586B000AFBA601A460346FB730B46BB81134604
:4014C000FB8000237B61FB7B3F2B04D8FB7B042B01D901237B6197F90F30002B01DA01237B61FB7B3F2B04D9FB7B412B01D901237B61FB7B3F2B06D8BB89B3F5807F0CD95B
:4015000001237B6109E0BB89802B01D901237B61FB88102B01D001237B61BB68002B01D101237B617B69002B60D100F0ADFA0346002B59D1FB88B989F87BBA6800F0C0F9D2
:4015400078617B69072B4CD102E0012000F0DCF8294B1B78DBB203F00203002BF5D0264B1B78DBB203F00203002B09D0224B1B78DBB29B08DBB2002B02D100237B6102E0F3
:401580004FF0FF337B617B69002B2AD11B4B1A781A4B5B78B989F87B00F0F8F978617B69072B1ED102E0012000F0AEF8124B1B78DBB203F00203002BF5D00F4B1B78DBB2B8
:4015C00003F00203002B09D00B4B1B78DBB29B08DBB2002B02D100237B6102E04FF0FF337B6100F085FA01E004237B617B6918461837BD4680BD00BF224700408081FF1F72
:4016000080B582B000AF00F0C7FA0346FB71194A184B1B78DBB243F00803DBB21370164A154B1B78DBB243F00803DBB21370134BC8221A70124A124B1B78DBB243F01003DB
:40164000DBB213700F4A0F4B1B78DBB243F01003DBB2137000BF0C4B1B78DBB203F02003002BF8D0FB79184600F09AFA00BF0837BD4680BDA0430040B04300400147004080
:40168000AC430040BC4300400047004080B483B000AF0346FB7101BE00BF0C37BD4680BC704700BF80B400AF054A054B1B78DBB243F00103DBB2137000BFBD4680BC704756
:4016C000F646004080B582B000AF786008E00C4B1B68184600F058FA7B68A3F500437B607B68B3F5004FF2D8064B1B687A6802FB03F3184600F048FA00BF0837BD4680BD6A
:40170000E080FF1FD880FF1F80B582B000AF0346FB80FB88054A127802FB03F3184600F033FA00BF0837BD4680BD00BFDC80FF1F80B582B000AF00F02FFA0346FB7100BFF7
:4017400000BF00BF00BF00BF00BF00BF00BF00BF00BF00BF00BF00BF00BF00BF00BF0A4A094B1B889BB243F004039BB21380064B1B88BFF36F8FFB79184600F011FA00BF56
:401780000837BD4680BD00BF0048004080B584B000AF03463960FB710F4B1B68FB60FB791F2B02D90020FFF771FFFB7903F01F0310339B00FA6813441B68BB60FB7903F081
:4017C0001F0310339B00FA6813443A681A60BB6818461037BD4680BD08ED00E080B582B000AF03460A46FB711346BB71BB79072B02D90020FFF74AFFFB791F2B02D900203E
:40180000FFF744FFFB7903F01F0303F1604303F56443BA795201D2B21A7000BF0837BD4680BD00BF80B582B000AF00F0B5F90346FB710C4A0B4B1B78DBB243F00803DBB21F
:401840001370094A084B1B78DBB243F00803DBB21370FB79184600F0A3F900BF0837BD4680BD00BFA0430040B043004080B584B000AF78600B46FB700023FB7313E00120CF
:40188000FFF742FF0C4B1B78DBB203F00103002BF5D0FB7B7A681344084A1278D2B21A70FB7B0133FB73FA7BFB789A42EAD3FB7B18461037BD4680BD2247004020470040B6
:4018C00080B489B000AFBA601A460346FB730B46BB811346FB800723FB612A4B1B78DBB203F00203002B45D0274BB6221A70264BD5221A70244B02221A70224B1B78DBB277
:4019000003F00203002B32D11F4AFB7B137000237B8308E01C497B8BBA6813441B780B707B8B01337B837A8BFB889A42F2D3FB88B3F5807F20D1FB7B3F2B1DD8FB7B03F565
:4019400010331A02BB8913445B017B6100237B8309E00D497A8B7B6913441B78DBB20B707B8B01337B837B8B1F2BF2D904E00923FB6101E00423FB61FB6918462437BD46B7
:4019800080BC7047224700402047004090B484B000AF0446084611461A462346FB710346BB800B46BB711346FB700723FB601B4B1B78DBB203F00203002B26D0184BB62275
:4019C0001A70174BD8221A70154B05221A70134B1B78DBB203F00203002B13D1104AFB7913700F4ABB881B0A9BB2DBB213700C4BBA88D2B21A700A4ABB791370084AFB78FB
:401A0000137004E00923FB6001E00423FB60FB6818461037BD4690BC704700BF224700402047004080B485B000AF0346FB710723FB60134B1B78DBB203F00203002B16D05F
:401A4000104BB6221A700F4BE1221A700D4B0E221A700B4B1B78DBB203F00203002B03D1084AFB79137004E00923FB6001E00423FB60FB6818461437BD4680BC704700BF6B
:401A8000224700402047004080B582B000AF04237B6000F081F80346FB70124B1B78002B16D1104B01221A7000237B600E4B1B6803F00103002B0BD00B4A0B4B1B6823F07F
:401AC0000103136000BF00BF00BF084B01221A60FB78184600F064F87B6818460837BD4680BD00BF6C81FF1F040008407081FF1F80B582B000AF00F04FF80346FB710D4BE6
:401B000000221A700C4B1B68012B0BD10B4A0B4B1B6843F00103136000BF00BF00BF064B00221A60FB79184600F03AF800BF0837BD4680BD6C81FF1F7081FF1F040008407D
:401B400080B483B000AF07237B600C4B1B78DBB203F00203002B09D0094BB6221A70084BE0221A70064B0D221A7001E004237B607B6818460C37BD4680BC70472247004032
:401B800020470040000000000230800803D000BF01380046FCD17047EFF3108072B6704780F31088704700BF80B500AF00F0ACF800F0F6F900F090FA00BF80BD80B500AFAC
:401BC00000F026F900BF80BD80B586B000AFF8607A601A460B467B8113467B720023FB8200F0DEF909E0FB8AFA6813441B78184600F016FAFB8A0133FB82FA8A7B899A4282
:401C0000F1D37B687A891A80002318461837BD4680BD00BF90B589B000AFF8607A601A460B467B8113467B720523BB610023FB831BE000F06DF90346002B10D000F068F964
:401C40000346FB821920FFF73DFD00F061F903469BB2FA8A9A42F1D30023BB610DE00120FFF730FDFB8B0133FB83F98B7A7A13469B0013445B009942DBDB7B6800221A803B
:401C80000023BB8336E000F043F90346BB827B681A88BB8A13449AB27B681A807B681B887A899A421ED90023FB830CE0BB8BFA68D41800F0E5F803462370BB8B0133BB8333
:401CC000FB8B0133FB83FA8BBB8A9A42EED3BB8B013BFA6813441B78172B0BD00520FFF7F1FC07E07B681A88BB8AD31A9AB27B681A8004E000F00CF90346002BC3D1BB69E6
:401D000018462437BD4690BD80B500AF064B1B78002B04D100F00AF8034B01221A7000F03BF800BF80BD00BF7481FF1F80B500AF11490020FFF72AFD07210020FFF74EFDF0
:401D40000E4B00221A700E4B72221A700D4B20221A700D490120FFF719FD07210120FFF73DFD0A4B06221A70094B47221A70094B02221A7000BF80BD452100007781FF1FFF
:401D800088650040896500401D2200002A6500403A6500408B65004080B582B000AFFFF7FBFE0346FB71154A144B1B78DBB243F02003DBB21370124A114B1B78DBB243F0A2
:401DC0001003DBB213700F4B01221A600E4A0E4B1B78DBB243F01003DBB213700B4B02221A60084B02221A6000F050FAFB791846FFF7D6FE00BF0837BD4680BD986500406C
:401E00009965004000E100E09B65004080E200E080B582B000AFFFF7BFFE0346FB71144A134B1B78DBB223F02003DBB2137000F047FA104A0F4B1B78DBB223F01003DBB2C9
:401E400013700D4B01221A600C4A0C4B1B78DBB223F01003DBB21370074B02221A60FB791846FFF79DFE00BF0837BD4680BD00BF986500409965004080E100E09B6500409B
:401E800080B483B000AF1B4B01221A601A4B1B78BB711A4B1B787B71194B1B78DBB2002B03D1BA797B799A4217D0BB79154AD35CFB71BB790133BB71BB793F2B01D9002337
:401EC000BB710D4ABB7913700D4B1B78DBB2002B06D00B4B00221A7002E00B4B1B78FB710A4B01221A60FB7918460C37BD4680BC704700BF80E100E07881FF1F7981FF1FCA
:401F00007A81FF1F8481FF1F4865004000E100E080B483B000AF1D4B01221A601C4B1B78DAB21C4B1B78DBB29A420AD11A4B1B78DBB2002B02D04023FB711DE00023FB71FB
:401F40001AE0134B1B78DAB2124B1B78DBB29A4208D2104B1B78DAB20D4B1B78DBB2D31AFB7109E00B4B1B78DAB2094B1B78DBB2D31ADBB24033FB71084B01221A60FB79DD
:401F800018460C37BD4680BC704700BF80E100E07881FF1F7981FF1F7A81FF1F00E100E080B582B000AFFFF7F7FD0346FB71154A144B1B78DBB243F00103DBB21370114A4C
:401FC000104B1B78DBB223F00103DBB21370FB791846FFF7E5FD0C4B01221A600B4B00221A700B4B00221A700A4B00221A700A4B00221A70094B01221A6000BF0837BD46A9
:4020000080BD00BF9865004080E100E07881FF1F7981FF1F7A81FF1F7B81FF1F00E100E080B485B000AF0346FB71254B1B78FB73244B1B78BB73FA7BBB7B9A4208D2FA7BBF
:40204000BB7B013B9A420CBF01230023DBB207E0FA7BBB7BD31A3F2B0CBF01230023DBB2002BE2D1BA7BFB7B9A420AD1164B1B78DBB203F00403002B03D1144AFB791370DC
:4020800018E0FB7B3F2B01D90023FB73FB7B1049FA79CA54FB7B0133FB73094AFB7B1370094B1B78DBB203F00203002B02D0094B02221A6000BF1437BD4680BC704700BFFF
:4020C0007681FF1F7581FF1F6B6500404B650040C481FF1F00E200E080B582B000AFFFF75BFD0346FB71124A114B1B78DBB243F00103DBB213700E4A0D4B1B78DBB223F077
:402100000103DBB21370FB791846FFF749FD094B02221A60084B00221A70084B00221A70074B02221A6000BF0837BD4680BD00BF9B65004080E100E07581FF1F7681FF1FF6
:4021400000E100E080B483B000AF0023FB712B4B1B78BB71BB797B71BB7903F01E03002B0CD097F9063003F01E035AB2244B1B785BB213435BB2DAB2214B1A70BB7903F054
:402180002003002B30D01F4B1B787B711E4B1B78DBB219461D4A7B7953540123FB71FB79002B21D01A4B1B78DBB2002B02D0194B01221A70144B1B78DBB20133DAB2124BAF
:4021C0001A70114B1B78DBB23F2B02D90E4B00221A700D4B1B78DAB20F4B1B78DBB29A4202D10B4B01221A70BB7903F02003002BADD100BF0C37BD4680BC704769650040F3
:402200007781FF1F486500407981FF1F8481FF1F7A81FF1F7B81FF1F7881FF1F80B400AF17E0154B1B78DBB23F2B02D9124B00221A70124B104A1278D2B21146104A525C4A
:40224000D2B21A700C4B1B78DBB20133DAB20A4B1A70094B1B78DAB20A4B1B789A4206D0094B1B78DBB203F00403002BD9D000BFBD4680BC704700BF7581FF1F4B65004073
:40228000C481FF1F7681FF1F6B65004080B400AF094A094B1B78DBB243F00203DBB21370064A064B1B78DBB243F00203DBB2137000BFBD4680BC7047A2430040B24300408C
:4022C00080B400AF094A094B1B78DBB223F00203DBB21370064A064B1B78DBB223F00203DBB2137000BFBD4680BC7047A2430040B2430040014B1868704700BF4481FF1FEF
:402300000E4B70B51E460E4C0025E41AA410A54204D056F8253098470135F8E700F030FA084B094C1E46E41AA4100025A54204D056F8253098470135F8E770BD8C27000009
:402340008C2700008C2700009427000010B5431E0A44914204D011F8014B03F8014FF8E710BD03460244934202D003F8011BFAE770470000FC0000000029000000000000CB
:40238000004F00400C00005100401000305100404000F05100401000000001400010001401400004801801400002001B0140000100400140000A004C0140000200500140C2
:4023C00020000000605200406C270000060000180140EC2600008000801A01406C26000080000000014F0040036500400115014003170140131801403D190140361A0140DC
:40240000561B0140034001400241014002420140044301400245014001460140014701400848014003490140034C0140074D014002500140015101400A36887289388B0F3E
:40244000E601E220E601E810840298049E01A201A301B001B202B501B604BA20BE45D418D604D804D904DB04DC11DD10DF0100080501071409400A0A0C020E2A1080144012
:4024800016011728180219081B211C901D611E0822202404254027102B802C022D202FA0354136243E2A3F804444452447404C804E01574059205B115C10608463026D10CC
:4024C0006E046F02762B7728808188408B60C074C2F3C4F8CAF1CCF0CEF0D0F0D210D621D80DE220E404E810001002400580071308100AAC0F0C100C12711414152C17438F
:402500001A031F082009217122D0230E25712620270628DC2A2230E031C0330F341F3530380839223A023B083E043F104002454049FF4A074BFF4C404D204EF04F055008ED
:40254000580459045A045C115D015F01604061A862406320010202040480050107240AA80E240F0211051320155719011A881B081D041E421F4020442109232025042745BE
:4025800029052A042B402C042F623080310835803714384839043C803D103E0640044604488049024C044E104F8050045404550157015D285E405F02674079407A0183083E
:4025C00088048A128B828C408DA58E049110920496089740980499089B109F45A040A322A404A504A611A780B402B504C0FAC2EEC4FECAF3CC7ACEFAD024D230D6F0D88050
:4026000032403410CC3096809C1096809C10181096809C10C6105004D4049408940865048240881096809C10B410D880E68081049D04E6808102B404E808104075028840F3
:402640009902C408DE04E20110021C02000F0000800040808000800000000000000B0B00000000000002020002000000132804120A1914008019400013000C6000000000B3
:402680002050400AE0000060030014600060080400601500E06000004001A00010060F010018E060000008000000010126050000000B00CE31FFFFFF0000F0440C000000AD
:4026C000010004000404040411110001000000000000C0000000400200000000000000000000000000000000000000001F1060001C086300021800000000004000192322D2
:402700000127001873000C01030000407F010000043F00000C390004080000262C00101F0F40403880002208000004102304050001C00E0006FFFFFF62A0F0410C0000003F
:40274000000002110404040411110001000000000000400200103010001010120000000000000000000000000000000080800000400000006910162E003C010143000000D1
:40278000F8B500BFF8BC08BC9E46704751000000F9040000F8B500BFF8BC08BC9E4670472D000000B8270000C880FF1F80000000C000000000000000000000007423000084
:4027C0007823000000366E01C05D0000180000000000E02E00000000000000000000000000000000000000000000000000000000000000007C2700000000000000000000B3
:4028000000000000000000000000000000000000000000000000000000000000000000000000000000000000000000000000000000000000E480FF1F000000000000000016
:402840000000000000000000000000000000000000000000000000000000000000000000000000000000000000000000000000000000000000000000000000000000000058
:402880000000000000000000000000000000000000000000000000000000000000000000000000000000000000000000000000000000000000000000000000000000000018
:4028C00000000000000000000000000000000000000000000000000000000000000000000000000000000000000000000000000000000000000000000000000000000000D8
:402900000080002011290000D92B0000D92B000008B500F069F900BF10B5054C237833B9044B13B10448AFF300800123237010BD4081FF1F00000000502E0000084B10B5D0
:402940001BB108490848AFF300800848036803B910BD074B002BFBD0BDE81040184700BF000000004481FF1F502E0000C880FF1F0000000008B562B600F0CAF9012000F0C9
:402980008DF94FF4FA7000F0FDF9002000F086F94FF4FA7000F0F6F9014800F0D3F9EDE7542E0000FEE700BFF0B40022174611E050F82760F3B226F0FF0608E001EB420526
:4029C00011F812406D78A5550132013BDBB2002BF4D10137082FEBD9F0BC7047064B1B78DBB203F00701054A11701B09013213704422034B1A707047CF0100496E580040F1
:402A00007658004008B50A46002100F018FA08BD38B51925234B1D80182202331A70022203F27E231A7008224FF040231A70032103F5007319701C4B1B78DBB21B490B704C
:402A40001B4B1A8041F25122023B1A8000240CE0184B1B7803F0010343EA440404F003044FF4F07000F0A4F9013D0DB1032CEFD115B90320FFF796FF0F4B4FF480721A80AC
:402A800007221A7000220D490A704820023108701A700222033B1A70094A137843F00103137038BD8040004008010049A1460040224200402542004004400040064000408D
:402AC000A243004008B500F0AFF908BD38B572B6354A137843F00403137000240CE0334D630019194A0011462A44084691882858FFF788FF0134E4B2082CF0D900240BE04C
:402B00002A49A3001819420088188022C16B806BFFF7D8FF0134E4B2002CF1D0244C04F124012046FFF740FF224A137843F0020313701032137843F0020313701E4D2B78C1
:402B400043F040032B70A2F58632513A137843F0100313700A2204F534711848FFF7B2FF082204F537711648FFF7ACFF082204F539711448FFF7A6FF134A137843F0080391
:402B80001370124C61232370FFF742FF8123237001220F4B1A70FFF721FF0E2229460D48FFF790FF38BD00BFE8460040682E00002005004803500140A0430040C0510040EC
:402BC0001251004022510040224300400048004004000840B043004008B500F0F9F803680C2B00D1FEE7FEE708B5104E104D16E029686B68AC68002204E051F8040B43F879
:402C0000040B0432A242F8D1E868002203E0002143F8041B04328242F9D11035013E002EE6D100F0DBF8FFF7A5FEFEE701000000D02E000008B5104A104B1A60104A1368A4
:402C400043F40073136000230AE0032B03D80D4A52F8231000E00C490C4A42F8231001332F2BF2D90A4B1A780A4B1A70074A0A4B1A60FFF72BFF08BD0004FA050CED00E055
:402C800014ED00E000290000D92B00000080FF1FBC760040C080FF1F08ED00E0044A137803F0FD03400000F00200184310707047205100407222074B1A70202201331A7012
:402CC00006225F3B1A70472210331A70002251331A7070478865004010B500F071F804460A4A137843F0200313700132137843F0100313700232137843F01003137000F01F
:402D000033F8204600F060F810BD00BF9865004008B5054B1B7823B9FFF7CCFF0122024B1A70FFF7D9FF08BD5C81FF1F034B1B7813F0040FFAD1024B187070476B650040CE
:402D40004B65004038B5074B1B782BB938BDFFF7EDFF0134A4B201E005460024285D0028F5D138BD5C81FF1F054A137843F0010313701032137843F001031370704700BF07
:402D8000A243004010B5044605E0084B186800F00FF8A4F50044B4F5004FF6D8034B586800FB04F000F004F810BD00BFCC80FF1F0230800803D000BF01380046FCD170475F
:402DC000EFF3108072B6704780F31088704700BF014B1868704700BF3C81FF1F0E4B70B51E460E4C0025E41AA410A54204D056F8253098470135F8E700F058F8084B094C97
:402E00001E46E41AA4100025A54204D056F8253098470135F8E770BDB82E0000B82E0000B82E0000C02E000010B5431E0A44914204D011F8014B03F8014FF8E710BD034688
:402E40000244934202D003F8011BFAE7704700000000000054657374204D65737361676520212121200D0A00005100401000305100404000F05100401000000001400010F3
:402E800000140140000480180140800300400140000A004C014000020050014020000000001801407007004880004300F8B500BFF8BC08BC9E4670473D290000352C000071
:402EC000F8B500BFF8BC08BC9E46704719290000E02E0000C880FF1F7800000020000000000000000000E02EC05D00001800000000366E010000000000000000000000001D
:402F00000000000000000000000000000000000000000000AA2E000000000000000000000000000000000000000000000000000000000000000000000000000000000000B9
:402F40000000000000000000000000000000000000000000DC80FF1F00000000000000000000000000000000000000000000000000000000000000000000000000000000D7
:402F80000000000000000000000000000000000000000000000000000000000000000000000000000000000000000000000000000000000000000000000000000000000011
:402FC00000000000000000000000000000000000000000000000000000000000000000000000000000000000000000000000000000000000000000000000000000000000D1
:403000000000000000000000000000000000000000000000000000000000000000000000000000000000000000000000000000000000000000000000000000000000000090
:403040000000000000000000000000000000000000000000000000000000000000000000000000000000000000000000000000000000000000000000000000000000000050
:020000040003F7
:40FFC0006B1129000028000000001800000000000000000000000000000000000000000000000000000000000000000000000000000000000000000000000000000000001C
:0200000480007A
:4000000000000000000000000000000000000000000000000000000000000000000000000000000000000000000000000000000000000000000000000000000000000000C0
:400040000000000000000000000000000000000000000000000000000000000000000000000000000000000000000000000000000000000000000000000000000000000080
:400080000000000000000000000000000000000000000000000000000000000000000000000000000000000000000000000000000000000000000000000000000000000040
:4000C0000000000000000000000000000000000000000000000000000000000000000000000000000000000000000000000000000000000000000000000000000000000000
:4001000000000000000000000000000000000000000000000000000000000000000000000000000000000000000000000000000000000000000000000000000000000000BF
:40014000000000000000000000000000000000000000000000000000000000000000000000000000000000000000000000000000000000000000000000000000000000007F
:40018000000000000000000000000000000000000000000000000000000000000000000000000000000000000000000000000000000000000000000000000000000000003F
:4001C00000000000000000000000000000000000000000000000000000000000000000000000000000000000000000000000000000000000000000000000000000000000FF
:4002000000000000000000000000000000000000000000000000000000000000000000000000000000000000000000000000000000000000000000000000000000000000BE
:40024000000000000000000000000000000000000000000000000000000000000000000000000000000000000000000000000000000000000000000000000000000000007E
:40028000000000000000000000000000000000000000000000000000000000000000000000000000000000000000000000000000000000000000000000000000000000003E
:4002C00000000000000000000000000000000000000000000000000000000000000000000000000000000000000000000000000000000000000000000000000000000000FE
:4003000000000000000000000000000000000000000000000000000000000000000000000000000000000000000000000000000000000000000000000000000000000000BD
:40034000000000000000000000000000000000000000000000000000000000000000000000000000000000000000000000000000000000000000000000000000000000007D
:40038000000000000000000000000000000000000000000000000000000000000000000000000000000000000000000000000000000000000000000000000000000000003D
:4003C00000000000000000000000000000000000000000000000000000000000000000000000000000000000000000000000000000000000000000000000000000000000FD
:4004000000000000000000000000000000000000000000000000000000000000000000000000000000000000000000000000000000000000000000000000000000000000BC
:40044000000000000000000000000000000000000000000000000000000000000000000000000000000000000000000000000000000000000000000000000000000000007C
:40048000000000000000000000000000000000000000000000000000000000000000000000000000000000000000000000000000000000000000000000000000000000003C
:4004C00000000000000000000000000000000000000000000000000000000000000000000000000000000000000000000000000000000000000000000000000000000000FC
:4005000000000000000000000000000000000000000000000000000000000000000000000252004003650040141801403A190140691A01404F1B0140014C0140074D0140EC
:400540000250014061806440887289388B0F800886048801A101A202A401AA02AC01B002B204B401B501B608BE41BF10D418D804D904DB04DF01010A0308052906020C41D3
:400580000D020E0A0F2010221248168017141A011B151C101D211E0A1F102308250A260827012B402C412D202F10354137143D803E823F284440452847404F205501564000
:4005C0005B015C10600463026C226E046F08760277148601C0FEC2F0C47FCAF1CCF0CEF0D0F0D220D621D80CE00802030410060C070808100C090D800E100F131220152C65
:4006000016201743180C19711A111B06230C24142571270E281C2A02301F31C0330F3420353039223B083E103F104002450449FF4A074BFF4C404D204EF04F05500858046B
:4006400059045A045F01604061A862406320814882358334844A85F8863488138A2C8D208E488FC293019501980399909A149B2CA101A413A664A9F8AA40AF01B010B106B8
:40068000B268B301B40FB518B7E0B908BA28BE01BF01C024C103C50CC6CEC70BC81DC9FFCAFFCBFFCEF0CF44D00CD401D804D904DA04DB04DF01E6C0EA40EB02006001020C
:4006C00003100440051006410720082009090F081108132014201604180419021D141E402040211022042320254826102740282029042A012C412F08311032043310352117
:40070000361438803A043B043D803E06411044204640471048104B044F0850405240550457505D015E405F18633079017B4089488A0292049404984199019B089D6A9F40C5
:40074000A101A204A308A540A740C0FFC24EC466CAB3CCE6CEDAD0E4D6F087101040731088409310C408DC01E20110011C0100001F10200001000004020000E308C00000E0
:400780001C1C23E10008230033180C003F44000003FF000004E700180C800000003C00C22C1F10380F0000C00000A202000004002604030001000CE024FFFFFF62A0F041F1
:4007C0000C0000000000021104040404000000010000000000004002001030100010101200000000000000000000000000000000800040808000800000000000000B0B00AF
:4008000000000000000202000000000000000000000000000000000000000000000000000000000000000000000000000000000000000000000000000000000000000000B4
:400840000000000000000000000000000000000000000000000000000000000000000000000000000000000000000000000000000000000000000000000000000000000078
:400880000000000000000000000000000000000000000000000000000000000000000000000000000000000000000000000000000000000000000000000000000000000038
:4008C00000000000000000000000000000000000000000000000000000000000000000000000000000000000000000000000000000000000000000000000000000000000F8
:4009000000000000000000000000000000000000000000000000000000000000000000000000000000000000000000000000000000000000000000000000000000000000B7
:0200000490006A
:0400000000004005B7
:0200000490105A
:04000000BC90ACAF55
:0200000490303A
:02000000F47A90
:0200000490402A
:4000000000000000000000000000000000000000000000000000000000000000000000000000000000000000000000000000000000000000000000000000000000000000C0
:400040000000000000000000000000000000000000000000000000000000000000000000000000000000000000000000000000000000000000000000000000000000000080
:400080000000000000000000000000000000000000000000000000000000000000000000000000000000000000000000000000000000000000000000000000000000000040
:4000C0000000000000000000000000000000000000000000000000000000000000000000000000000000000000000000000000000000000000000000000000000000000000
:0200000490501A
:0C00000000012E16106900012E2804E3F8
:00000001FF